{
  "contractName": "CryptoPrototype",
  "abi": [
    {
      "inputs": [],
      "stateMutability": "nonpayable",
      "type": "constructor"
    },
    {
      "inputs": [
        {
          "internalType": "uint256",
          "name": "",
          "type": "uint256"
        }
      ],
      "name": "chain",
      "outputs": [
        {
          "internalType": "uint256",
          "name": "index",
          "type": "uint256"
        },
        {
          "internalType": "uint256",
          "name": "timestamp",
          "type": "uint256"
        },
        {
          "internalType": "bytes32",
          "name": "previousHash",
          "type": "bytes32"
        },
        {
          "internalType": "bytes32",
          "name": "hash",
          "type": "bytes32"
        },
        {
          "internalType": "uint256",
          "name": "nonce",
          "type": "uint256"
        }
      ],
      "stateMutability": "view",
      "type": "function",
      "constant": true
    },
    {
      "inputs": [],
      "name": "difficulty",
      "outputs": [
        {
          "internalType": "uint256",
          "name": "",
          "type": "uint256"
        }
      ],
      "stateMutability": "view",
      "type": "function",
      "constant": true
    },
    {
      "inputs": [],
      "name": "miningReward",
      "outputs": [
        {
          "internalType": "uint256",
          "name": "",
          "type": "uint256"
        }
      ],
      "stateMutability": "view",
      "type": "function",
      "constant": true
    },
    {
      "inputs": [
        {
          "internalType": "uint256",
          "name": "",
          "type": "uint256"
        }
      ],
      "name": "pendingTransactions",
      "outputs": [
        {
          "internalType": "address",
          "name": "sender",
          "type": "address"
        },
        {
          "internalType": "address",
          "name": "receiver",
          "type": "address"
        },
        {
          "internalType": "uint256",
          "name": "amount",
          "type": "uint256"
        }
      ],
      "stateMutability": "view",
      "type": "function",
      "constant": true
    },
    {
      "inputs": [
        {
          "internalType": "address",
          "name": "_receiver",
          "type": "address"
        },
        {
          "internalType": "uint256",
          "name": "_amount",
          "type": "uint256"
        }
      ],
      "name": "createTransaction",
      "outputs": [],
      "stateMutability": "nonpayable",
      "type": "function"
    },
    {
      "inputs": [
        {
          "internalType": "address",
          "name": "_miner",
          "type": "address"
        }
      ],
      "name": "minePendingTransactions",
      "outputs": [],
      "stateMutability": "nonpayable",
      "type": "function"
    },
    {
      "inputs": [],
      "name": "chainLength",
      "outputs": [
        {
          "internalType": "uint256",
          "name": "",
          "type": "uint256"
        }
      ],
      "stateMutability": "view",
      "type": "function",
      "constant": true
    }
  ],
  "bytecode": "0x60806040526003600255600160035534801561001a57600080fd5b50610023610028565b6100f4565b600080546001810182558180526006027f290decd9548b62a8d60345a988386fc84ba6bc95484008f6362f93160ef3e5638101829055427f290decd9548b62a8d60345a988386fc84ba6bc95484008f6362f93160ef3e5648201557f290decd9548b62a8d60345a988386fc84ba6bc95484008f6362f93160ef3e56681018290557f290decd9548b62a8d60345a988386fc84ba6bc95484008f6362f93160ef3e56781018290557f290decd9548b62a8d60345a988386fc84ba6bc95484008f6362f93160ef3e5680155565b610848806101036000396000f3fe608060405234801561001057600080fd5b506004361061007d5760003560e01c80634ac2d1031161005b5780634ac2d103146100bd5780635852cc0c146100c557806363a8374d146100e957806385c943c71461010b5761007d565b806319cae462146100825780631e7f8f0f146100a0578063219ee89c146100b5575b600080fd5b61008a61011e565b604051610097919061079e565b60405180910390f35b6100b36100ae366004610696565b610124565b005b61008a6101ef565b61008a6101f5565b6100d86100d33660046106bf565b6101fb565b6040516100979594939291906107a7565b6100fc6100f73660046106bf565b61023c565b6040516100979392919061077a565b6100b3610119366004610675565b61027c565b60025481565b604080516060810182523381526001600160a01b0393841660208201908152918101928352600180548082018255600091909152905160039091027fb10e2d527612073b26eecdfd717e6a320cf44b4afac2b0732d9fcbe2b7fa0cf6810180549286166001600160a01b031993841617905591517fb10e2d527612073b26eecdfd717e6a320cf44b4afac2b0732d9fcbe2b7fa0cf78301805491909516911617909255517fb10e2d527612073b26eecdfd717e6a320cf44b4afac2b0732d9fcbe2b7fa0cf890910155565b60005490565b60035481565b6000818154811061020b57600080fd5b6000918252602090912060069091020180546001820154600383015460048401546005909401549294509092909185565b6001818154811061024c57600080fd5b60009182526020909120600390910201805460018201546002909201546001600160a01b03918216935091169083565b60008054819061028e906001906107ca565b815481106102ac57634e487b7160e01b600052603260045260246000fd5b600091825260208220600460069283029091019081015483546001810185558480529283027f290decd9548b62a8d60345a988386fc84ba6bc95484008f6362f93160ef3e5638101848155427f290decd9548b62a8d60345a988386fc84ba6bc95484008f6362f93160ef3e5648301557f290decd9548b62a8d60345a988386fc84ba6bc95484008f6362f93160ef3e56682018390557f290decd9548b62a8d60345a988386fc84ba6bc95484008f6362f93160ef3e568909101859055919450925b60015481101561041457816002016001828154811061039d57634e487b7160e01b600052603260045260246000fd5b6000918252602080832084546001808201875595855291909320600392830290930180549290910290920180546001600160a01b039283166001600160a01b03199182161782558385015494820180549590931694169390931790556002908101549101558061040c816107e1565b91505061036e565b506104b38160000154826001015483600201805480602002602001604051908101604052809291908181526020016000905b828210156104a0576000848152602090819020604080516060810182526003860290920180546001600160a01b03908116845260018083015490911684860152600290910154918301919091529083529092019101610446565b50505050846003015485600501546104d7565b60048201556104c460016000610603565b6104d085600354610124565b5050505050565b6000806104e385610520565b905086868286866040516020016104fe95949392919061074e565b6040516020818303038152906040528051906020012091505095945050505050565b60408051602081019091526000808252606091905b83518110156105fa578184828151811061055f57634e487b7160e01b600052603260045260246000fd5b60200260200101516000015185838151811061058b57634e487b7160e01b600052603260045260246000fd5b6020026020010151602001518684815181106105b757634e487b7160e01b600052603260045260246000fd5b6020026020010151604001516040516020016105d69493929190610710565b604051602081830303815290604052915080806105f2906107e1565b915050610535565b5090505b919050565b50805460008255600302906000526020600020908101906106249190610627565b50565b5b8082111561065a5780546001600160a01b03199081168255600182018054909116905560006002820155600301610628565b5090565b80356001600160a01b03811681146105fe57600080fd5b600060208284031215610686578081fd5b61068f8261065e565b9392505050565b600080604083850312156106a8578081fd5b6106b18361065e565b946020939093013593505050565b6000602082840312156106d0578081fd5b5035919050565b60008151815b818110156106f757602081850181015186830152016106dd565b818111156107055782828601525b509290920192915050565b600061071c82876106d7565b6bffffffffffffffffffffffff19606096871b811682529490951b909316601485015250602883015250604801919050565b600086825285602083015261076660408301866106d7565b938452505060208201526040019392505050565b6001600160a01b039384168152919092166020820152604081019190915260600190565b90815260200190565b948552602085019390935260408401919091526060830152608082015260a00190565b6000828210156107dc576107dc6107fc565b500390565b60006000198214156107f5576107f56107fc565b5060010190565b634e487b7160e01b600052601160045260246000fdfea2646970667358221220a09aa99f826577472c8e22164f6f4f5853f72c4ceff80bee0d7f8eb2815d7c7f64736f6c63430008000033",
  "immutableReferences": {},
  "source": "// SPDX-License-Identifier: MIT\npragma solidity ^0.8.0;\n\ncontract CryptoPrototype {\n    struct Transaction {\n        address sender;\n        address receiver;\n        uint amount;\n    }\n\n    struct BlockStruct {\n        uint index;\n        uint timestamp;\n        Transaction[] transactions;\n        bytes32 previousHash;\n        bytes32 hash;\n        uint nonce;\n    }\n\n    BlockStruct[] public chain;\n    Transaction[] public pendingTransactions;\n\n    uint public difficulty = 3;\n    uint public miningReward = 1;\n\n    constructor() {\n        createGenesisBlock();\n    }\n\n    function createGenesisBlock() private {\n        BlockStruct storage genesisBlock = chain.push();\n        genesisBlock.index = 0;\n        genesisBlock.timestamp = block.timestamp;\n        genesisBlock.previousHash = 0x0;\n        genesisBlock.hash = 0x0;\n        genesisBlock.nonce = 0;\n    }\n\n    function createTransaction(address _receiver, uint _amount) public {\n        Transaction memory newTransaction = Transaction({\n            sender: msg.sender,\n            receiver: _receiver,\n            amount: _amount\n        });\n        pendingTransactions.push(newTransaction);\n    }\n\n    function minePendingTransactions(address _miner) public {\n        BlockStruct storage previousBlock = chain[chain.length - 1];\n        bytes32 previousHash = previousBlock.hash;\n        uint index = chain.length;\n\n        BlockStruct storage newBlock = chain.push();\n        newBlock.index = index;\n        newBlock.timestamp = block.timestamp;\n        newBlock.previousHash = previousHash;\n        newBlock.nonce = 0;\n\n        for (uint i = 0; i < pendingTransactions.length; i++) {\n            newBlock.transactions.push(pendingTransactions[i]);\n        }\n\n        newBlock.hash = calculateHash(newBlock.index, newBlock.timestamp, newBlock.transactions, newBlock.previousHash, newBlock.nonce);\n        delete pendingTransactions;\n        \n        createTransaction(_miner, miningReward);\n    }\n\n    function calculateHash(uint index, uint timestamp, Transaction[] memory transactions, bytes32 previousHash, uint nonce) private pure returns (bytes32) {\n        bytes memory serializedTransactions = serializeTransactions(transactions);\n        return keccak256(abi.encodePacked(index, timestamp, serializedTransactions, previousHash, nonce));\n    }\n\n    function serializeTransactions(Transaction[] memory transactions) private pure returns (bytes memory) {\n        bytes memory serialized = \"\";\n        for (uint i = 0; i < transactions.length; i++) {\n            serialized = abi.encodePacked(serialized, transactions[i].sender, transactions[i].receiver, transactions[i].amount);\n        }\n        return serialized;\n    }\n\n    function chainLength() public view returns (uint) {\n        return chain.length;\n    }\n}\n",
  "sourcePath": "C:\\Users\\91965\\Downloads\\Block-Chain-Project-main\\blockchainproject\\contracts\\CryptoProtoype.sol",
  "compiler": {
    "name": "solc",
    "version": "0.8.0+commit.c7dfd78e.Emscripten.clang"
  },
  "schemaVersion": "3.4.16",
  "updatedAt": "2024-06-20T22:00:55.731Z",
  "networkType": "ethereum",
  "devdoc": {
    "kind": "dev",
    "methods": {},
    "version": 1
  },
  "userdoc": {
    "kind": "user",
    "methods": {},
    "version": 1
  }
}